{
  "contractName": "Collectible",
  "abi": [
    {
      "inputs": [
        {
          "internalType": "uint256",
          "name": "_commission",
          "type": "uint256"
        },
        {
          "internalType": "uint256",
          "name": "_refPrice",
          "type": "uint256"
        }
      ],
      "stateMutability": "nonpayable",
      "type": "constructor"
    },
    {
      "anonymous": false,
      "inputs": [
        {
          "indexed": true,
          "internalType": "address",
          "name": "previousOwner",
          "type": "address"
        },
        {
          "indexed": true,
          "internalType": "address",
          "name": "newOwner",
          "type": "address"
        }
      ],
      "name": "OwnershipTransferred",
      "type": "event"
    },
    {
      "inputs": [],
      "name": "channelId",
      "outputs": [
        {
          "internalType": "uint256",
          "name": "_value",
          "type": "uint256"
        }
      ],
      "stateMutability": "view",
      "type": "function",
      "constant": true
    },
    {
      "inputs": [
        {
          "internalType": "uint256",
          "name": "",
          "type": "uint256"
        }
      ],
      "name": "channels",
      "outputs": [
        {
          "internalType": "uint256",
          "name": "id",
          "type": "uint256"
        },
        {
          "internalType": "string",
          "name": "name",
          "type": "string"
        },
        {
          "internalType": "string",
          "name": "bio",
          "type": "string"
        },
        {
          "internalType": "address",
          "name": "creator",
          "type": "address"
        },
        {
          "internalType": "uint256",
          "name": "subscription_price",
          "type": "uint256"
        },
        {
          "internalType": "string",
          "name": "avatar",
          "type": "string"
        },
        {
          "internalType": "string",
          "name": "cover",
          "type": "string"
        },
        {
          "internalType": "bool",
          "name": "approved",
          "type": "bool"
        },
        {
          "internalType": "uint256",
          "name": "time",
          "type": "uint256"
        },
        {
          "internalType": "string",
          "name": "category",
          "type": "string"
        }
      ],
      "stateMutability": "view",
      "type": "function",
      "constant": true
    },
    {
      "inputs": [],
      "name": "owner",
      "outputs": [
        {
          "internalType": "address",
          "name": "",
          "type": "address"
        }
      ],
      "stateMutability": "view",
      "type": "function",
      "constant": true
    },
    {
      "inputs": [
        {
          "internalType": "string",
          "name": "",
          "type": "string"
        }
      ],
      "name": "refCodeOwner",
      "outputs": [
        {
          "internalType": "address",
          "name": "",
          "type": "address"
        }
      ],
      "stateMutability": "view",
      "type": "function",
      "constant": true
    },
    {
      "inputs": [],
      "name": "renounceOwnership",
      "outputs": [],
      "stateMutability": "nonpayable",
      "type": "function"
    },
    {
      "inputs": [
        {
          "internalType": "address",
          "name": "newOwner",
          "type": "address"
        }
      ],
      "name": "transferOwnership",
      "outputs": [],
      "stateMutability": "nonpayable",
      "type": "function"
    },
    {
      "inputs": [
        {
          "internalType": "address",
          "name": "",
          "type": "address"
        },
        {
          "internalType": "uint256",
          "name": "",
          "type": "uint256"
        }
      ],
      "name": "userChannels",
      "outputs": [
        {
          "internalType": "uint256",
          "name": "id",
          "type": "uint256"
        },
        {
          "internalType": "string",
          "name": "name",
          "type": "string"
        },
        {
          "internalType": "string",
          "name": "bio",
          "type": "string"
        },
        {
          "internalType": "address",
          "name": "creator",
          "type": "address"
        },
        {
          "internalType": "uint256",
          "name": "subscription_price",
          "type": "uint256"
        },
        {
          "internalType": "string",
          "name": "avatar",
          "type": "string"
        },
        {
          "internalType": "string",
          "name": "cover",
          "type": "string"
        },
        {
          "internalType": "bool",
          "name": "approved",
          "type": "bool"
        },
        {
          "internalType": "uint256",
          "name": "time",
          "type": "uint256"
        },
        {
          "internalType": "string",
          "name": "category",
          "type": "string"
        }
      ],
      "stateMutability": "view",
      "type": "function",
      "constant": true
    },
    {
      "inputs": [
        {
          "internalType": "address",
          "name": "",
          "type": "address"
        }
      ],
      "name": "userRefCode",
      "outputs": [
        {
          "internalType": "string",
          "name": "",
          "type": "string"
        }
      ],
      "stateMutability": "view",
      "type": "function",
      "constant": true
    },
    {
      "inputs": [
        {
          "internalType": "address",
          "name": "",
          "type": "address"
        }
      ],
      "name": "user_funds",
      "outputs": [
        {
          "internalType": "uint256",
          "name": "",
          "type": "uint256"
        }
      ],
      "stateMutability": "view",
      "type": "function",
      "constant": true
    },
    {
      "inputs": [],
      "name": "videoId",
      "outputs": [
        {
          "internalType": "uint256",
          "name": "_value",
          "type": "uint256"
        }
      ],
      "stateMutability": "view",
      "type": "function",
      "constant": true
    },
    {
      "inputs": [
        {
          "internalType": "address",
          "name": "",
          "type": "address"
        },
        {
          "internalType": "uint256",
          "name": "",
          "type": "uint256"
        }
      ],
      "name": "wishList",
      "outputs": [
        {
          "internalType": "uint256",
          "name": "",
          "type": "uint256"
        }
      ],
      "stateMutability": "view",
      "type": "function",
      "constant": true
    },
    {
      "inputs": [
        {
          "internalType": "string",
          "name": "name",
          "type": "string"
        },
        {
          "internalType": "string",
          "name": "bio",
          "type": "string"
        },
        {
          "internalType": "uint256",
          "name": "price",
          "type": "uint256"
        },
        {
          "internalType": "string",
          "name": "avatar",
          "type": "string"
        },
        {
          "internalType": "string",
          "name": "cover",
          "type": "string"
        },
        {
          "internalType": "string",
          "name": "_category",
          "type": "string"
        }
      ],
      "name": "createChannel",
      "outputs": [],
      "stateMutability": "nonpayable",
      "type": "function"
    },
    {
      "inputs": [
        {
          "components": [
            {
              "internalType": "string",
              "name": "name",
              "type": "string"
            },
            {
              "internalType": "string",
              "name": "description",
              "type": "string"
            },
            {
              "internalType": "string",
              "name": "category",
              "type": "string"
            },
            {
              "internalType": "string",
              "name": "genre",
              "type": "string"
            },
            {
              "internalType": "string",
              "name": "_type",
              "type": "string"
            },
            {
              "internalType": "string",
              "name": "url",
              "type": "string"
            },
            {
              "internalType": "string",
              "name": "preview",
              "type": "string"
            },
            {
              "internalType": "string",
              "name": "poster",
              "type": "string"
            },
            {
              "internalType": "uint256",
              "name": "duration",
              "type": "uint256"
            },
            {
              "internalType": "bool",
              "name": "premium",
              "type": "bool"
            }
          ],
          "internalType": "struct Collectible.MetaData",
          "name": "data",
          "type": "tuple"
        },
        {
          "internalType": "uint256",
          "name": "channel_id",
          "type": "uint256"
        }
      ],
      "name": "uploadVideo",
      "outputs": [],
      "stateMutability": "nonpayable",
      "type": "function"
    },
    {
      "inputs": [],
      "name": "allChannels",
      "outputs": [
        {
          "components": [
            {
              "internalType": "uint256",
              "name": "id",
              "type": "uint256"
            },
            {
              "internalType": "string",
              "name": "name",
              "type": "string"
            },
            {
              "internalType": "string",
              "name": "bio",
              "type": "string"
            },
            {
              "internalType": "address",
              "name": "creator",
              "type": "address"
            },
            {
              "internalType": "uint256",
              "name": "subscription_price",
              "type": "uint256"
            },
            {
              "internalType": "string",
              "name": "avatar",
              "type": "string"
            },
            {
              "internalType": "string",
              "name": "cover",
              "type": "string"
            },
            {
              "internalType": "bool",
              "name": "approved",
              "type": "bool"
            },
            {
              "components": [
                {
                  "internalType": "uint256",
                  "name": "id",
                  "type": "uint256"
                },
                {
                  "internalType": "uint256",
                  "name": "channel_id",
                  "type": "uint256"
                },
                {
                  "components": [
                    {
                      "internalType": "string",
                      "name": "name",
                      "type": "string"
                    },
                    {
                      "internalType": "string",
                      "name": "description",
                      "type": "string"
                    },
                    {
                      "internalType": "string",
                      "name": "category",
                      "type": "string"
                    },
                    {
                      "internalType": "string",
                      "name": "genre",
                      "type": "string"
                    },
                    {
                      "internalType": "string",
                      "name": "_type",
                      "type": "string"
                    },
                    {
                      "internalType": "string",
                      "name": "url",
                      "type": "string"
                    },
                    {
                      "internalType": "string",
                      "name": "preview",
                      "type": "string"
                    },
                    {
                      "internalType": "string",
                      "name": "poster",
                      "type": "string"
                    },
                    {
                      "internalType": "uint256",
                      "name": "duration",
                      "type": "uint256"
                    },
                    {
                      "internalType": "bool",
                      "name": "premium",
                      "type": "bool"
                    }
                  ],
                  "internalType": "struct Collectible.MetaData",
                  "name": "data",
                  "type": "tuple"
                },
                {
                  "internalType": "bool",
                  "name": "approved",
                  "type": "bool"
                },
                {
                  "internalType": "bool",
                  "name": "blocked",
                  "type": "bool"
                },
                {
                  "internalType": "uint256",
                  "name": "time",
                  "type": "uint256"
                }
              ],
              "internalType": "struct Collectible.Video[]",
              "name": "videos",
              "type": "tuple[]"
            },
            {
              "components": [
                {
                  "internalType": "address",
                  "name": "_address",
                  "type": "address"
                },
                {
                  "internalType": "uint256",
                  "name": "created_at",
                  "type": "uint256"
                }
              ],
              "internalType": "struct Collectible.User[]",
              "name": "subscribers",
              "type": "tuple[]"
            },
            {
              "internalType": "uint256",
              "name": "time",
              "type": "uint256"
            },
            {
              "internalType": "string",
              "name": "category",
              "type": "string"
            }
          ],
          "internalType": "struct Collectible.Channel[]",
          "name": "result",
          "type": "tuple[]"
        }
      ],
      "stateMutability": "view",
      "type": "function",
      "constant": true
    },
    {
      "inputs": [
        {
          "internalType": "uint256[]",
          "name": "_ids",
          "type": "uint256[]"
        }
      ],
      "name": "approveVideo",
      "outputs": [],
      "stateMutability": "nonpayable",
      "type": "function"
    },
    {
      "inputs": [
        {
          "internalType": "uint256",
          "name": "channel_id",
          "type": "uint256"
        },
        {
          "internalType": "string",
          "name": "code",
          "type": "string"
        }
      ],
      "name": "subscribe",
      "outputs": [],
      "stateMutability": "payable",
      "type": "function",
      "payable": true
    },
    {
      "inputs": [
        {
          "internalType": "uint256[]",
          "name": "_ids",
          "type": "uint256[]"
        }
      ],
      "name": "blockVideos",
      "outputs": [],
      "stateMutability": "nonpayable",
      "type": "function"
    },
    {
      "inputs": [
        {
          "internalType": "uint256",
          "name": "channel_id",
          "type": "uint256"
        },
        {
          "internalType": "uint256",
          "name": "video_id",
          "type": "uint256"
        }
      ],
      "name": "addToWishList",
      "outputs": [],
      "stateMutability": "nonpayable",
      "type": "function"
    },
    {
      "inputs": [
        {
          "internalType": "address",
          "name": "_address",
          "type": "address"
        }
      ],
      "name": "get_wishlist",
      "outputs": [
        {
          "components": [
            {
              "internalType": "uint256",
              "name": "id",
              "type": "uint256"
            },
            {
              "internalType": "uint256",
              "name": "channel_id",
              "type": "uint256"
            },
            {
              "components": [
                {
                  "internalType": "string",
                  "name": "name",
                  "type": "string"
                },
                {
                  "internalType": "string",
                  "name": "description",
                  "type": "string"
                },
                {
                  "internalType": "string",
                  "name": "category",
                  "type": "string"
                },
                {
                  "internalType": "string",
                  "name": "genre",
                  "type": "string"
                },
                {
                  "internalType": "string",
                  "name": "_type",
                  "type": "string"
                },
                {
                  "internalType": "string",
                  "name": "url",
                  "type": "string"
                },
                {
                  "internalType": "string",
                  "name": "preview",
                  "type": "string"
                },
                {
                  "internalType": "string",
                  "name": "poster",
                  "type": "string"
                },
                {
                  "internalType": "uint256",
                  "name": "duration",
                  "type": "uint256"
                },
                {
                  "internalType": "bool",
                  "name": "premium",
                  "type": "bool"
                }
              ],
              "internalType": "struct Collectible.MetaData",
              "name": "data",
              "type": "tuple"
            },
            {
              "internalType": "bool",
              "name": "approved",
              "type": "bool"
            },
            {
              "internalType": "bool",
              "name": "blocked",
              "type": "bool"
            },
            {
              "internalType": "uint256",
              "name": "time",
              "type": "uint256"
            }
          ],
          "internalType": "struct Collectible.Video[]",
          "name": "result",
          "type": "tuple[]"
        }
      ],
      "stateMutability": "view",
      "type": "function",
      "constant": true
    },
    {
      "inputs": [
        {
          "internalType": "uint256",
          "name": "video_id",
          "type": "uint256"
        }
      ],
      "name": "video",
      "outputs": [
        {
          "components": [
            {
              "internalType": "uint256",
              "name": "id",
              "type": "uint256"
            },
            {
              "internalType": "uint256",
              "name": "channel_id",
              "type": "uint256"
            },
            {
              "components": [
                {
                  "internalType": "string",
                  "name": "name",
                  "type": "string"
                },
                {
                  "internalType": "string",
                  "name": "description",
                  "type": "string"
                },
                {
                  "internalType": "string",
                  "name": "category",
                  "type": "string"
                },
                {
                  "internalType": "string",
                  "name": "genre",
                  "type": "string"
                },
                {
                  "internalType": "string",
                  "name": "_type",
                  "type": "string"
                },
                {
                  "internalType": "string",
                  "name": "url",
                  "type": "string"
                },
                {
                  "internalType": "string",
                  "name": "preview",
                  "type": "string"
                },
                {
                  "internalType": "string",
                  "name": "poster",
                  "type": "string"
                },
                {
                  "internalType": "uint256",
                  "name": "duration",
                  "type": "uint256"
                },
                {
                  "internalType": "bool",
                  "name": "premium",
                  "type": "bool"
                }
              ],
              "internalType": "struct Collectible.MetaData",
              "name": "data",
              "type": "tuple"
            },
            {
              "internalType": "bool",
              "name": "approved",
              "type": "bool"
            },
            {
              "internalType": "bool",
              "name": "blocked",
              "type": "bool"
            },
            {
              "internalType": "uint256",
              "name": "time",
              "type": "uint256"
            }
          ],
          "internalType": "struct Collectible.Video",
          "name": "_video",
          "type": "tuple"
        }
      ],
      "stateMutability": "view",
      "type": "function",
      "constant": true
    },
    {
      "inputs": [
        {
          "internalType": "string",
          "name": "code",
          "type": "string"
        }
      ],
      "name": "addRefCode",
      "outputs": [],
      "stateMutability": "nonpayable",
      "type": "function"
    },
    {
      "inputs": [],
      "name": "claimFunds",
      "outputs": [],
      "stateMutability": "nonpayable",
      "type": "function"
    },
    {
      "inputs": [],
      "name": "activityLogs",
      "outputs": [
        {
          "components": [
            {
              "internalType": "address",
              "name": "_address",
              "type": "address"
            },
            {
              "internalType": "uint256",
              "name": "chanel_id",
              "type": "uint256"
            },
            {
              "internalType": "uint256",
              "name": "video_id",
              "type": "uint256"
            },
            {
              "internalType": "uint256",
              "name": "_time",
              "type": "uint256"
            },
            {
              "internalType": "string",
              "name": "_status",
              "type": "string"
            }
          ],
          "internalType": "struct Collectible.Activity[]",
          "name": "result",
          "type": "tuple[]"
        }
      ],
      "stateMutability": "view",
      "type": "function",
      "constant": true
    },
    {
      "inputs": [],
      "name": "connectWalletHandler",
      "outputs": [],
      "stateMutability": "nonpayable",
      "type": "function"
    },
    {
      "inputs": [
        {
          "internalType": "uint256",
          "name": "channel_id",
          "type": "uint256"
        }
      ],
      "name": "actualPrice",
      "outputs": [
        {
          "internalType": "uint256",
          "name": "_actualPrice",
          "type": "uint256"
        }
      ],
      "stateMutability": "view",
      "type": "function",
      "constant": true
    }
  ],
  "bytecode": "0x60806040523480156200001157600080fd5b506040516200612d3803806200612d8339818101604052810190620000379190620001b0565b620000576200004b620000a460201b60201c565b620000ac60201b60201c565b816002819055508060018190555060016009604051620000779062000252565b908152602001604051809103902060006101000a81548160ff021916908315150217905550505062000269565b600033905090565b60008060009054906101000a900473ffffffffffffffffffffffffffffffffffffffff169050816000806101000a81548173ffffffffffffffffffffffffffffffffffffffff021916908373ffffffffffffffffffffffffffffffffffffffff1602179055508173ffffffffffffffffffffffffffffffffffffffff168173ffffffffffffffffffffffffffffffffffffffff167f8be0079c531659141344cd1fd0a4f28419497f9722a3daafe3b4186f6b6457e060405160405180910390a35050565b600080fd5b6000819050919050565b6200018a8162000175565b81146200019657600080fd5b50565b600081519050620001aa816200017f565b92915050565b60008060408385031215620001ca57620001c962000170565b5b6000620001da8582860162000199565b9250506020620001ed8582860162000199565b9150509250929050565b600081905092915050565b7f6f527034636648586650546a2b4d4e73614c74454937497948416f3d00000000600082015250565b60006200023a601c83620001f7565b9150620002478262000202565b601c82019050919050565b60006200025f826200022b565b9150819050919050565b615eb480620002796000396000f3fe6080604052600436106101665760003560e01c806386d4fbd3116100d1578063d6269b601161008a578063e2cee54411610064578063e2cee54414610536578063e5949b5d14610561578063ef04d810146105a7578063f2fde38b146105d057610166565b8063d6269b601461047f578063d87ba649146104bc578063dea5a630146104f957610166565b806386d4fbd31461037c5780638da5cb5b146103985780639fb87da6146103c3578063ac30777314610400578063c5c95e9014610417578063d2e0fd6b1461045457610166565b806360453e791161012357806360453e79146102795780636b0a89d0146102a25780636c1992ea146102cb578063713e4d5d146102f6578063715018a61461031f57806385e684f31461033657610166565b8063029efebb1461016b578063050fd24314610194578063169aef4a146101bd57806329fe3018146101fa57806343448c9d1461022557806349ca72e914610262575b600080fd5b34801561017757600080fd5b50610192600480360381019061018d919061465c565b6105f9565b005b3480156101a057600080fd5b506101bb60048036038101906101b69190614972565b6106e6565b005b3480156101c957600080fd5b506101e460048036038101906101df91906149ce565b610ada565b6040516101f19190614c35565b60405180910390f35b34801561020657600080fd5b5061020f6110ec565b60405161021c9190614c66565b60405180910390f35b34801561023157600080fd5b5061024c60048036038101906102479190614cdf565b6110f8565b6040516102599190614c66565b60405180910390f35b34801561026e57600080fd5b50610277611129565b005b34801561028557600080fd5b506102a0600480360381019061029b9190614d1f565b611241565b005b3480156102ae57600080fd5b506102c960048036038101906102c49190614e38565b61152b565b005b3480156102d757600080fd5b506102e061183b565b6040516102ed9190614fc8565b60405180910390f35b34801561030257600080fd5b5061031d6004803603810190610318919061465c565b6119fb565b005b34801561032b57600080fd5b50610334611c1e565b005b34801561034257600080fd5b5061035d60048036038101906103589190614cdf565b611c32565b6040516103739a99989796959493929190615052565b60405180910390f35b61039660048036038101906103919190615111565b611f78565b005b3480156103a457600080fd5b506103ad6125e8565b6040516103ba919061516d565b60405180910390f35b3480156103cf57600080fd5b506103ea60048036038101906103e59190614e38565b612611565b6040516103f7919061516d565b60405180910390f35b34801561040c57600080fd5b5061041561265a565b005b34801561042357600080fd5b5061043e60048036038101906104399190615188565b6127a9565b60405161044b91906151b5565b60405180910390f35b34801561046057600080fd5b50610469612849565b60405161047691906155f0565b60405180910390f35b34801561048b57600080fd5b506104a660048036038101906104a191906149ce565b6132cc565b6040516104b39190614c66565b60405180910390f35b3480156104c857600080fd5b506104e360048036038101906104de9190615188565b61330e565b6040516104f09190614c66565b60405180910390f35b34801561050557600080fd5b50610520600480360381019061051b9190615188565b613326565b60405161052d9190615698565b60405180910390f35b34801561054257600080fd5b5061054b61347c565b6040516105589190614c66565b60405180910390f35b34801561056d57600080fd5b50610588600480360381019061058391906149ce565b613488565b60405161059e9a99989796959493929190615052565b60405180910390f35b3480156105b357600080fd5b506105ce60048036038101906105c991906156ba565b6137b1565b005b3480156105dc57600080fd5b506105f760048036038101906105f29190615188565b613aa4565b005b610601613b27565b6000600190505b6106126006613ba5565b81116106e2576000600a6000838152602001908152602001600020905060005b81600801805490508110156106cd5760016106748584600801848154811061065d5761065c6156fa565b5b90600052602060002090600e020160000154613bb3565b036106ba576001826008018281548110610691576106906156fa565b5b90600052602060002090600e0201600c0160016101000a81548160ff0219169083151502179055505b80806106c590615758565b915050610632565b505080806106da90615758565b915050610608565b5050565b806000600a6000838152602001908152602001600020905060008160030160009054906101000a900473ffffffffffffffffffffffffffffffffffffffff1690508073ffffffffffffffffffffffffffffffffffffffff163373ffffffffffffffffffffffffffffffffffffffff1614610795576040517f08c379a000000000000000000000000000000000000000000000000000000000815260040161078c90615812565b60405180910390fd5b61079f6005613c0e565b60006107ab6005613ba5565b905060006040518060c001604052808381526020018781526020018881526020016000151581526020016000151581526020014281525090506000600a60008881526020019081526020016000209050806008018290806001815401808255809150506001900390600052602060002090600e020160009091909190915060008201518160000155602082015181600101556040820151816002016000820151816000019080519060200190610862929190613d94565b50602082015181600101908051906020019061087f929190613d94565b50604082015181600201908051906020019061089c929190613d94565b5060608201518160030190805190602001906108b9929190613d94565b5060808201518160040190805190602001906108d6929190613d94565b5060a08201518160050190805190602001906108f3929190613d94565b5060c0820151816006019080519060200190610910929190613d94565b5060e082015181600701908051906020019061092d929190613d94565b5061010082015181600801556101208201518160090160006101000a81548160ff0219169083151502179055505050606082015181600c0160006101000a81548160ff021916908315150217905550608082015181600c0160016101000a81548160ff02191690831515021790555060a082015181600d0155505060046040518060a001604052806109bd613c24565b73ffffffffffffffffffffffffffffffffffffffff1681526020018981526020018581526020014281526020016040518060400160405280601181526020017f4e657720566964656f2055706c6f646564000000000000000000000000000000815250815250908060018154018082558091505060019003906000526020600020906005020160009091909190915060008201518160000160006101000a81548173ffffffffffffffffffffffffffffffffffffffff021916908373ffffffffffffffffffffffffffffffffffffffff1602179055506020820151816001015560408201518160020155606082015181600301556080820151816004019080519060200190610acd929190613d94565b5050505050505050505050565b610ae2613e1a565b6000600190505b610af36006613ba5565b81116110e65760005b600a6000838152602001908152602001600020600801805490508110156110d257600a60008381526020019081526020016000206008018181548110610b4557610b446156fa565b5b90600052602060002090600e02016000015484036110bf57600a60008381526020019081526020016000206008018181548110610b8557610b846156fa565b5b90600052602060002090600e02016040518060c001604052908160008201548152602001600182015481526020016002820160405180610140016040529081600082018054610bd390615861565b80601f0160208091040260200160405190810160405280929190818152602001828054610bff90615861565b8015610c4c5780601f10610c2157610100808354040283529160200191610c4c565b820191906000526020600020905b815481529060010190602001808311610c2f57829003601f168201915b50505050508152602001600182018054610c6590615861565b80601f0160208091040260200160405190810160405280929190818152602001828054610c9190615861565b8015610cde5780601f10610cb357610100808354040283529160200191610cde565b820191906000526020600020905b815481529060010190602001808311610cc157829003601f168201915b50505050508152602001600282018054610cf790615861565b80601f0160208091040260200160405190810160405280929190818152602001828054610d2390615861565b8015610d705780601f10610d4557610100808354040283529160200191610d70565b820191906000526020600020905b815481529060010190602001808311610d5357829003601f168201915b50505050508152602001600382018054610d8990615861565b80601f0160208091040260200160405190810160405280929190818152602001828054610db590615861565b8015610e025780601f10610dd757610100808354040283529160200191610e02565b820191906000526020600020905b815481529060010190602001808311610de557829003601f168201915b50505050508152602001600482018054610e1b90615861565b80601f0160208091040260200160405190810160405280929190818152602001828054610e4790615861565b8015610e945780601f10610e6957610100808354040283529160200191610e94565b820191906000526020600020905b815481529060010190602001808311610e7757829003601f168201915b50505050508152602001600582018054610ead90615861565b80601f0160208091040260200160405190810160405280929190818152602001828054610ed990615861565b8015610f265780601f10610efb57610100808354040283529160200191610f26565b820191906000526020600020905b815481529060010190602001808311610f0957829003601f168201915b50505050508152602001600682018054610f3f90615861565b80601f0160208091040260200160405190810160405280929190818152602001828054610f6b90615861565b8015610fb85780601f10610f8d57610100808354040283529160200191610fb8565b820191906000526020600020905b815481529060010190602001808311610f9b57829003601f168201915b50505050508152602001600782018054610fd190615861565b80601f0160208091040260200160405190810160405280929190818152602001828054610ffd90615861565b801561104a5780601f1061101f5761010080835404028352916020019161104a565b820191906000526020600020905b81548152906001019060200180831161102d57829003601f168201915b50505050508152602001600882015481526020016009820160009054906101000a900460ff1615151515815250508152602001600c820160009054906101000a900460ff16151515158152602001600c820160019054906101000a900460ff16151515158152602001600d8201548152505092505b80806110ca90615758565b915050610afc565b5080806110de90615758565b915050610ae9565b50919050565b60058060000154905081565b600c602052816000526040600020818154811061111457600080fd5b90600052602060002001600091509150505481565b600060028190555061113b6000613c2c565b6000600190505b61114c6006613ba5565b811161123e57600a600082815260200190815260200160002060008082016000905560018201600061117e9190613e5a565b60028201600061118e9190613e5a565b6003820160006101000a81549073ffffffffffffffffffffffffffffffffffffffff021916905560048201600090556005820160006111cd9190613e5a565b6006820160006111dd9190613e5a565b6007820160006101000a81549060ff02191690556008820160006112019190613e9a565b6009820160006112119190613ebe565b600a820160009055600b820160006112299190613e5a565b5050808061123690615758565b915050611142565b50565b60078660405161125191906158ce565b908152602001604051809103902060009054906101000a900460ff16156112ad576040517f08c379a00000000000000000000000000000000000000000000000000000000081526004016112a490615957565b60405180910390fd5b6009866040516112bd91906158ce565b908152602001604051809103902060009054906101000a900460ff16156112e7576112e6611129565b5b6112f16006613c0e565b60006112fd6006613ba5565b90506000600a60008381526020019081526020016000209050818160000181905550611327613c24565b8160030160006101000a81548173ffffffffffffffffffffffffffffffffffffffff021916908373ffffffffffffffffffffffffffffffffffffffff16021790555087816001019080519060200190611381929190613d94565b508681600201908051906020019061139a929190613d94565b50848160050190805190602001906113b3929190613d94565b50838160060190805190602001906113cc929190613d94565b508581600401819055504281600a01819055508281600b0190805190602001906113f7929190613d94565b5060046040518060a0016040528061140d613c24565b73ffffffffffffffffffffffffffffffffffffffff168152602001848152602001600081526020014281526020016040518060400160405280601381526020017f4e6577204368616e6e656c204372656174656400000000000000000000000000815250815250908060018154018082558091505060019003906000526020600020906005020160009091909190915060008201518160000160006101000a81548173ffffffffffffffffffffffffffffffffffffffff021916908373ffffffffffffffffffffffffffffffffffffffff160217905550602082015181600101556040820151816002015560608201518160030155608082015181600401908051906020019061151e929190613d94565b5050505050505050505050565b60086000611537613c24565b73ffffffffffffffffffffffffffffffffffffffff1673ffffffffffffffffffffffffffffffffffffffff16815260200190815260200160002060009054906101000a900460ff16156115bf576040517f08c379a00000000000000000000000000000000000000000000000000000000081526004016115b6906159c3565b60405180910390fd5b600073ffffffffffffffffffffffffffffffffffffffff16600e826040516115e791906158ce565b908152602001604051809103902060009054906101000a900473ffffffffffffffffffffffffffffffffffffffff1673ffffffffffffffffffffffffffffffffffffffff161461166c576040517f08c379a000000000000000000000000000000000000000000000000000000000815260040161166390615a2f565b60405180910390fd5b611674613c24565b600e8260405161168491906158ce565b908152602001604051809103902060006101000a81548173ffffffffffffffffffffffffffffffffffffffff021916908373ffffffffffffffffffffffffffffffffffffffff16021790555080600d60006116dd613c24565b73ffffffffffffffffffffffffffffffffffffffff1673ffffffffffffffffffffffffffffffffffffffff168152602001908152602001600020908051906020019061172a929190613d94565b5060046040518060a00160405280611740613c24565b73ffffffffffffffffffffffffffffffffffffffff1681526020016000815260200160008152602001428152602001604051806060016040528060228152602001615e3560229139815250908060018154018082558091505060019003906000526020600020906005020160009091909190915060008201518160000160006101000a81548173ffffffffffffffffffffffffffffffffffffffff021916908373ffffffffffffffffffffffffffffffffffffffff1602179055506020820151816001015560408201518160020155606082015181600301556080820151816004019080519060200190611835929190613d94565b50505050565b606060048054905067ffffffffffffffff81111561185c5761185b6144e3565b5b60405190808252806020026020018201604052801561189557816020015b611882613ee2565b81526020019060019003908161187a5790505b5090506004805480602002602001604051908101604052809291908181526020016000905b828210156119f257838290600052602060002090600502016040518060a00160405290816000820160009054906101000a900473ffffffffffffffffffffffffffffffffffffffff1673ffffffffffffffffffffffffffffffffffffffff1673ffffffffffffffffffffffffffffffffffffffff16815260200160018201548152602001600282015481526020016003820154815260200160048201805461196190615861565b80601f016020809104026020016040519081016040528092919081815260200182805461198d90615861565b80156119da5780601f106119af576101008083540402835291602001916119da565b820191906000526020600020905b8154815290600101906020018083116119bd57829003601f168201915b505050505081525050815260200190600101906118ba565b50505050905090565b611a03613b27565b6000600190505b611a146006613ba5565b8111611c1a576000600a6000838152602001908152602001600020905060005b8160080180549050811015611c05576001611a7685846008018481548110611a5f57611a5e6156fa565b5b90600052602060002090600e020160000154613bb3565b03611bf2576001826008018281548110611a9357611a926156fa565b5b90600052602060002090600e0201600c0160006101000a81548160ff02191690831515021790555060046040518060a00160405280611ad0613c24565b73ffffffffffffffffffffffffffffffffffffffff16815260200184600001548152602001846008018481548110611b0b57611b0a6156fa565b5b90600052602060002090600e0201600001548152602001428152602001604051806060016040528060398152602001615dfc60399139815250908060018154018082558091505060019003906000526020600020906005020160009091909190915060008201518160000160006101000a81548173ffffffffffffffffffffffffffffffffffffffff021916908373ffffffffffffffffffffffffffffffffffffffff1602179055506020820151816001015560408201518160020155606082015181600301556080820151816004019080519060200190611bee929190613d94565b5050505b8080611bfd90615758565b915050611a34565b50508080611c1290615758565b915050611a0a565b5050565b611c26613b27565b611c306000613c2c565b565b600f6020528160005260406000208181548110611c4e57600080fd5b90600052602060002090600c020160009150915050806000015490806001018054611c7890615861565b80601f0160208091040260200160405190810160405280929190818152602001828054611ca490615861565b8015611cf15780601f10611cc657610100808354040283529160200191611cf1565b820191906000526020600020905b815481529060010190602001808311611cd457829003601f168201915b505050505090806002018054611d0690615861565b80601f0160208091040260200160405190810160405280929190818152602001828054611d3290615861565b8015611d7f5780601f10611d5457610100808354040283529160200191611d7f565b820191906000526020600020905b815481529060010190602001808311611d6257829003601f168201915b5050505050908060030160009054906101000a900473ffffffffffffffffffffffffffffffffffffffff1690806004015490806005018054611dc090615861565b80601f0160208091040260200160405190810160405280929190818152602001828054611dec90615861565b8015611e395780601f10611e0e57610100808354040283529160200191611e39565b820191906000526020600020905b815481529060010190602001808311611e1c57829003601f168201915b505050505090806006018054611e4e90615861565b80601f0160208091040260200160405190810160405280929190818152602001828054611e7a90615861565b8015611ec75780601f10611e9c57610100808354040283529160200191611ec7565b820191906000526020600020905b815481529060010190602001808311611eaa57829003601f168201915b5050505050908060070160009054906101000a900460ff169080600a01549080600b018054611ef590615861565b80601f0160208091040260200160405190810160405280929190818152602001828054611f2190615861565b8015611f6e5780601f10611f4357610100808354040283529160200191611f6e565b820191906000526020600020905b815481529060010190602001808311611f5157829003601f168201915b505050505090508a565b6000600a600084815260200190815260200160002090506000816004015490506000611fa682600254613cf0565b90506000611fbd8284613d2190919063ffffffff16565b90506000611fcd84600154613d37565b9050600073ffffffffffffffffffffffffffffffffffffffff16600e87604051611ff791906158ce565b908152602001604051809103902060009054906101000a900473ffffffffffffffffffffffffffffffffffffffff1673ffffffffffffffffffffffffffffffffffffffff16146121005780600b6000600e8960405161205691906158ce565b908152602001604051809103902060009054906101000a900473ffffffffffffffffffffffffffffffffffffffff1673ffffffffffffffffffffffffffffffffffffffff1673ffffffffffffffffffffffffffffffffffffffff16815260200190815260200160002060008282546120ce9190615a4f565b925050819055506120e88185613d2190919063ffffffff16565b93506120fd8183613d2190919063ffffffff16565b91505b348414612142576040517f08c379a000000000000000000000000000000000000000000000000000000000815260040161213990615af1565b60405180910390fd5b8460090160405180604001604052803373ffffffffffffffffffffffffffffffffffffffff16815260200142815250908060018154018082558091505060019003906000526020600020906002020160009091909190915060008201518160000160006101000a81548173ffffffffffffffffffffffffffffffffffffffff021916908373ffffffffffffffffffffffffffffffffffffffff16021790555060208201518160010155505082600b60006121fa6125e8565b73ffffffffffffffffffffffffffffffffffffffff1673ffffffffffffffffffffffffffffffffffffffff16815260200190815260200160002060008282546122439190615a4f565b9250508190555081600b60008760030160009054906101000a900473ffffffffffffffffffffffffffffffffffffffff1673ffffffffffffffffffffffffffffffffffffffff1673ffffffffffffffffffffffffffffffffffffffff16815260200190815260200160002060008282546122bd9190615a4f565b92505081905550600f60006122d0613c24565b73ffffffffffffffffffffffffffffffffffffffff1673ffffffffffffffffffffffffffffffffffffffff1681526020019081526020016000208590806001815401808255809150506001900390600052602060002090600c020160009091909190915060008201548160000155600182018160010190805461235290615861565b61235d929190613f27565b50600282018160020190805461237290615861565b61237d929190613f27565b506003820160009054906101000a900473ffffffffffffffffffffffffffffffffffffffff168160030160006101000a81548173ffffffffffffffffffffffffffffffffffffffff021916908373ffffffffffffffffffffffffffffffffffffffff16021790555060048201548160040155600582018160050190805461240390615861565b61240e929190613f27565b50600682018160060190805461242390615861565b61242e929190613f27565b506007820160009054906101000a900460ff168160070160006101000a81548160ff0219169083151502179055506008820181600801908054612472929190613fb4565b5060098201816009019080546124899291906141c5565b50600a82015481600a0155600b820181600b019080546124a890615861565b6124b3929190613f27565b50505060046040518060a001604052806124cb613c24565b73ffffffffffffffffffffffffffffffffffffffff168152602001898152602001600081526020014281526020016040518060400160405280600e81526020017f4e65772073756273637269626572000000000000000000000000000000000000815250815250908060018154018082558091505060019003906000526020600020906005020160009091909190915060008201518160000160006101000a81548173ffffffffffffffffffffffffffffffffffffffff021916908373ffffffffffffffffffffffffffffffffffffffff16021790555060208201518160010155604082015181600201556060820151816003015560808201518160040190805190602001906125dc929190613d94565b50505050505050505050565b60008060009054906101000a900473ffffffffffffffffffffffffffffffffffffffff16905090565b600e818051602081018201805184825260208301602085012081835280955050505050506000915054906101000a900473ffffffffffffffffffffffffffffffffffffffff1681565b6000600b60003373ffffffffffffffffffffffffffffffffffffffff1673ffffffffffffffffffffffffffffffffffffffff16815260200190815260200160002054116126dc576040517f08c379a00000000000000000000000000000000000000000000000000000000081526004016126d390615b5d565b60405180910390fd5b3373ffffffffffffffffffffffffffffffffffffffff166108fc600b60003373ffffffffffffffffffffffffffffffffffffffff1673ffffffffffffffffffffffffffffffffffffffff168152602001908152602001600020549081150290604051600060405180830381858888f19350505050158015612761573d6000803e3d6000fd5b506000600b60003373ffffffffffffffffffffffffffffffffffffffff1673ffffffffffffffffffffffffffffffffffffffff16815260200190815260200160002081905550565b600d60205280600052604060002060009150905080546127c890615861565b80601f01602080910402602001604051908101604052809291908181526020018280546127f490615861565b80156128415780601f1061281657610100808354040283529160200191612841565b820191906000526020600020905b81548152906001019060200180831161282457829003601f168201915b505050505081565b60606128556006613ba5565b67ffffffffffffffff81111561286e5761286d6144e3565b5b6040519080825280602002602001820160405280156128a757816020015b61289461428e565b81526020019060019003908161288c5790505b5090506000600190505b6128bb6006613ba5565b81116132c85760006001826128d09190615b7d565b9050600a6000838152602001908152602001600020604051806101800160405290816000820154815260200160018201805461290b90615861565b80601f016020809104026020016040519081016040528092919081815260200182805461293790615861565b80156129845780601f1061295957610100808354040283529160200191612984565b820191906000526020600020905b81548152906001019060200180831161296757829003601f168201915b5050505050815260200160028201805461299d90615861565b80601f01602080910402602001604051908101604052809291908181526020018280546129c990615861565b8015612a165780601f106129eb57610100808354040283529160200191612a16565b820191906000526020600020905b8154815290600101906020018083116129f957829003601f168201915b505050505081526020016003820160009054906101000a900473ffffffffffffffffffffffffffffffffffffffff1673ffffffffffffffffffffffffffffffffffffffff1673ffffffffffffffffffffffffffffffffffffffff16815260200160048201548152602001600582018054612a8f90615861565b80601f0160208091040260200160405190810160405280929190818152602001828054612abb90615861565b8015612b085780601f10612add57610100808354040283529160200191612b08565b820191906000526020600020905b815481529060010190602001808311612aeb57829003601f168201915b50505050508152602001600682018054612b2190615861565b80601f0160208091040260200160405190810160405280929190818152602001828054612b4d90615861565b8015612b9a5780601f10612b6f57610100808354040283529160200191612b9a565b820191906000526020600020905b815481529060010190602001808311612b7d57829003601f168201915b505050505081526020016007820160009054906101000a900460ff1615151515815260200160088201805480602002602001604051908101604052809291908181526020016000905b8282101561313357838290600052602060002090600e02016040518060c001604052908160008201548152602001600182015481526020016002820160405180610140016040529081600082018054612c3b90615861565b80601f0160208091040260200160405190810160405280929190818152602001828054612c6790615861565b8015612cb45780601f10612c8957610100808354040283529160200191612cb4565b820191906000526020600020905b815481529060010190602001808311612c9757829003601f168201915b50505050508152602001600182018054612ccd90615861565b80601f0160208091040260200160405190810160405280929190818152602001828054612cf990615861565b8015612d465780601f10612d1b57610100808354040283529160200191612d46565b820191906000526020600020905b815481529060010190602001808311612d2957829003601f168201915b50505050508152602001600282018054612d5f90615861565b80601f0160208091040260200160405190810160405280929190818152602001828054612d8b90615861565b8015612dd85780601f10612dad57610100808354040283529160200191612dd8565b820191906000526020600020905b815481529060010190602001808311612dbb57829003601f168201915b50505050508152602001600382018054612df190615861565b80601f0160208091040260200160405190810160405280929190818152602001828054612e1d90615861565b8015612e6a5780601f10612e3f57610100808354040283529160200191612e6a565b820191906000526020600020905b815481529060010190602001808311612e4d57829003601f168201915b50505050508152602001600482018054612e8390615861565b80601f0160208091040260200160405190810160405280929190818152602001828054612eaf90615861565b8015612efc5780601f10612ed157610100808354040283529160200191612efc565b820191906000526020600020905b815481529060010190602001808311612edf57829003601f168201915b50505050508152602001600582018054612f1590615861565b80601f0160208091040260200160405190810160405280929190818152602001828054612f4190615861565b8015612f8e5780601f10612f6357610100808354040283529160200191612f8e565b820191906000526020600020905b815481529060010190602001808311612f7157829003601f168201915b50505050508152602001600682018054612fa790615861565b80601f0160208091040260200160405190810160405280929190818152602001828054612fd390615861565b80156130205780601f10612ff557610100808354040283529160200191613020565b820191906000526020600020905b81548152906001019060200180831161300357829003601f168201915b5050505050815260200160078201805461303990615861565b80601f016020809104026020016040519081016040528092919081815260200182805461306590615861565b80156130b25780601f10613087576101008083540402835291602001916130b2565b820191906000526020600020905b81548152906001019060200180831161309557829003601f168201915b50505050508152602001600882015481526020016009820160009054906101000a900460ff1615151515815250508152602001600c820160009054906101000a900460ff16151515158152602001600c820160019054906101000a900460ff16151515158152602001600d8201548152505081526020019060010190612be3565b50505050815260200160098201805480602002602001604051908101604052809291908181526020016000905b828210156131f257838290600052602060002090600202016040518060400160405290816000820160009054906101000a900473ffffffffffffffffffffffffffffffffffffffff1673ffffffffffffffffffffffffffffffffffffffff1673ffffffffffffffffffffffffffffffffffffffff16815260200160018201548152505081526020019060010190613160565b505050508152602001600a8201548152602001600b8201805461321490615861565b80601f016020809104026020016040519081016040528092919081815260200182805461324090615861565b801561328d5780601f106132625761010080835404028352916020019161328d565b820191906000526020600020905b81548152906001019060200180831161327057829003601f168201915b5050505050815250508382815181106132a9576132a86156fa565b5b60200260200101819052505080806132c090615758565b9150506128b1565b5090565b600080600a60008481526020019081526020016000206004015490506133066132f782600154613d37565b82613d2190919063ffffffff16565b915050919050565b600b6020528060005260406000206000915090505481565b6060600080600c60008573ffffffffffffffffffffffffffffffffffffffff1673ffffffffffffffffffffffffffffffffffffffff1681526020019081526020016000208054905090508067ffffffffffffffff81111561338a576133896144e3565b5b6040519080825280602002602001820160405280156133c357816020015b6133b0613e1a565b8152602001906001900390816133a85790505b50925060005b8181101561347457613435600c60008773ffffffffffffffffffffffffffffffffffffffff1673ffffffffffffffffffffffffffffffffffffffff1681526020019081526020016000208281548110613425576134246156fa565b5b9060005260206000200154610ada565b848481518110613448576134476156fa565b5b6020026020010181905250828061345e90615758565b935050808061346c90615758565b9150506133c9565b505050919050565b60068060000154905081565b600a6020528060005260406000206000915090508060000154908060010180546134b190615861565b80601f01602080910402602001604051908101604052809291908181526020018280546134dd90615861565b801561352a5780601f106134ff5761010080835404028352916020019161352a565b820191906000526020600020905b81548152906001019060200180831161350d57829003601f168201915b50505050509080600201805461353f90615861565b80601f016020809104026020016040519081016040528092919081815260200182805461356b90615861565b80156135b85780601f1061358d576101008083540402835291602001916135b8565b820191906000526020600020905b81548152906001019060200180831161359b57829003601f168201915b5050505050908060030160009054906101000a900473ffffffffffffffffffffffffffffffffffffffff16908060040154908060050180546135f990615861565b80601f016020809104026020016040519081016040528092919081815260200182805461362590615861565b80156136725780601f1061364757610100808354040283529160200191613672565b820191906000526020600020905b81548152906001019060200180831161365557829003601f168201915b50505050509080600601805461368790615861565b80601f01602080910402602001604051908101604052809291908181526020018280546136b390615861565b80156137005780601f106136d557610100808354040283529160200191613700565b820191906000526020600020905b8154815290600101906020018083116136e357829003601f168201915b5050505050908060070160009054906101000a900460ff169080600a01549080600b01805461372e90615861565b80601f016020809104026020016040519081016040528092919081815260200182805461375a90615861565b80156137a75780601f1061377c576101008083540402835291602001916137a7565b820191906000526020600020905b81548152906001019060200180831161378a57829003601f168201915b505050505090508a565b600061380d600380548060200260200160405190810160405280929190818152602001828054801561380257602002820191906000526020600020905b8154815260200190600101908083116137ee575b505050505084613bb3565b905060006138af600c6000613820613c24565b73ffffffffffffffffffffffffffffffffffffffff1673ffffffffffffffffffffffffffffffffffffffff1681526020019081526020016000208054806020026020016040519081016040528092919081815260200182805480156138a457602002820191906000526020600020905b815481526020019060010190808311613890575b505050505084613bb3565b9050600181036138f4576040517f08c379a00000000000000000000000000000000000000000000000000000000081526004016138eb90615c23565b60405180910390fd5b600c6000613900613c24565b73ffffffffffffffffffffffffffffffffffffffff1673ffffffffffffffffffffffffffffffffffffffff168152602001908152602001600020839080600181540180825580915050600190039060005260206000200160009091909190915055600182146139935760038490806001815401808255809150506001900390600052602060002001600090919091909150555b60046040518060a001604052806139a8613c24565b73ffffffffffffffffffffffffffffffffffffffff168152602001868152602001858152602001428152602001604051806060016040528060288152602001615e5760289139815250908060018154018082558091505060019003906000526020600020906005020160009091909190915060008201518160000160006101000a81548173ffffffffffffffffffffffffffffffffffffffff021916908373ffffffffffffffffffffffffffffffffffffffff1602179055506020820151816001015560408201518160020155606082015181600301556080820151816004019080519060200190613a9b929190613d94565b50505050505050565b613aac613b27565b600073ffffffffffffffffffffffffffffffffffffffff168173ffffffffffffffffffffffffffffffffffffffff1603613b1b576040517f08c379a0000000000000000000000000000000000000000000000000000000008152600401613b1290615cb5565b60405180910390fd5b613b2481613c2c565b50565b613b2f613c24565b73ffffffffffffffffffffffffffffffffffffffff16613b4d6125e8565b73ffffffffffffffffffffffffffffffffffffffff1614613ba3576040517f08c379a0000000000000000000000000000000000000000000000000000000008152600401613b9a90615d21565b60405180910390fd5b565b600081600001549050919050565b600080600090505b8351811015613c025782848281518110613bd857613bd76156fa565b5b602002602001015103613bef576001915050613c08565b8080613bfa90615758565b915050613bbb565b50600090505b92915050565b6001816000016000828254019250508190555050565b600033905090565b60008060009054906101000a900473ffffffffffffffffffffffffffffffffffffffff169050816000806101000a81548173ffffffffffffffffffffffffffffffffffffffff021916908373ffffffffffffffffffffffffffffffffffffffff1602179055508173ffffffffffffffffffffffffffffffffffffffff168173ffffffffffffffffffffffffffffffffffffffff167f8be0079c531659141344cd1fd0a4f28419497f9722a3daafe3b4186f6b6457e060405160405180910390a35050565b6000613d19613d0a6103e885613d6890919063ffffffff16565b83613d7e90919063ffffffff16565b905092915050565b60008183613d2f9190615b7d565b905092915050565b6000613d60613d516107d085613d6890919063ffffffff16565b83613d7e90919063ffffffff16565b905092915050565b60008183613d769190615d70565b905092915050565b60008183613d8c9190615da1565b905092915050565b828054613da090615861565b90600052602060002090601f016020900481019282613dc25760008555613e09565b82601f10613ddb57805160ff1916838001178555613e09565b82800160010185558215613e09579182015b82811115613e08578251825591602001919060010190613ded565b5b509050613e169190614307565b5090565b6040518060c001604052806000815260200160008152602001613e3b614324565b8152602001600015158152602001600015158152602001600081525090565b508054613e6690615861565b6000825580601f10613e785750613e97565b601f016020900490600052602060002090810190613e969190614307565b5b50565b50805460008255600e0290600052602060002090810190613ebb9190614379565b50565b5080546000825560020290600052602060002090810190613edf9190614473565b50565b6040518060a00160405280600073ffffffffffffffffffffffffffffffffffffffff168152602001600081526020016000815260200160008152602001606081525090565b828054613f3390615861565b90600052602060002090601f016020900481019282613f555760008555613fa3565b82601f10613f665780548555613fa3565b82800160010185558215613fa357600052602060002091601f016020900482015b82811115613fa2578254825591600101919060010190613f87565b5b509050613fb09190614307565b5090565b82805482825590600052602060002090600e0281019282156141b457600052602060002091600e0282015b828111156141b357828260008201548160000155600182015481600101556002820181600201600082018160000190805461401990615861565b614024929190613f27565b50600182018160010190805461403990615861565b614044929190613f27565b50600282018160020190805461405990615861565b614064929190613f27565b50600382018160030190805461407990615861565b614084929190613f27565b50600482018160040190805461409990615861565b6140a4929190613f27565b5060058201816005019080546140b990615861565b6140c4929190613f27565b5060068201816006019080546140d990615861565b6140e4929190613f27565b5060078201816007019080546140f990615861565b614104929190613f27565b50600882015481600801556009820160009054906101000a900460ff168160090160006101000a81548160ff0219169083151502179055505050600c820160009054906101000a900460ff1681600c0160006101000a81548160ff021916908315150217905550600c820160019054906101000a900460ff1681600c0160016101000a81548160ff021916908315150217905550600d82015481600d0155505091600e019190600e0190613fdf565b5b5090506141c19190614379565b5090565b82805482825590600052602060002090600202810192821561427d5760005260206000209160020282015b8281111561427c5782826000820160009054906101000a900473ffffffffffffffffffffffffffffffffffffffff168160000160006101000a81548173ffffffffffffffffffffffffffffffffffffffff021916908373ffffffffffffffffffffffffffffffffffffffff160217905550600182015481600101555050916002019190600201906141f0565b5b50905061428a9190614473565b5090565b604051806101800160405280600081526020016060815260200160608152602001600073ffffffffffffffffffffffffffffffffffffffff168152602001600081526020016060815260200160608152602001600015158152602001606081526020016060815260200160008152602001606081525090565b5b80821115614320576000816000905550600101614308565b5090565b6040518061014001604052806060815260200160608152602001606081526020016060815260200160608152602001606081526020016060815260200160608152602001600081526020016000151581525090565b5b8082111561446f57600080820160009055600182016000905560028201600080820160006143a89190613e5a565b6001820160006143b89190613e5a565b6002820160006143c89190613e5a565b6003820160006143d89190613e5a565b6004820160006143e89190613e5a565b6005820160006143f89190613e5a565b6006820160006144089190613e5a565b6007820160006144189190613e5a565b60088201600090556009820160006101000a81549060ff02191690555050600c820160006101000a81549060ff0219169055600c820160016101000a81549060ff0219169055600d82016000905550600e0161437a565b5090565b5b808211156144b557600080820160006101000a81549073ffffffffffffffffffffffffffffffffffffffff0219169055600182016000905550600201614474565b5090565b6000604051905090565b600080fd5b600080fd5b600080fd5b6000601f19601f8301169050919050565b7f4e487b7100000000000000000000000000000000000000000000000000000000600052604160045260246000fd5b61451b826144d2565b810181811067ffffffffffffffff8211171561453a576145396144e3565b5b80604052505050565b600061454d6144b9565b90506145598282614512565b919050565b600067ffffffffffffffff821115614579576145786144e3565b5b602082029050602081019050919050565b600080fd5b6000819050919050565b6145a28161458f565b81146145ad57600080fd5b50565b6000813590506145bf81614599565b92915050565b60006145d86145d38461455e565b614543565b905080838252602082019050602084028301858111156145fb576145fa61458a565b5b835b81811015614624578061461088826145b0565b8452602084019350506020810190506145fd565b5050509392505050565b600082601f830112614643576146426144cd565b5b81356146538482602086016145c5565b91505092915050565b600060208284031215614672576146716144c3565b5b600082013567ffffffffffffffff8111156146905761468f6144c8565b5b61469c8482850161462e565b91505092915050565b600080fd5b600080fd5b600080fd5b600067ffffffffffffffff8211156146cf576146ce6144e3565b5b6146d8826144d2565b9050602081019050919050565b82818337600083830152505050565b6000614707614702846146b4565b614543565b905082815260208101848484011115614723576147226146af565b5b61472e8482856146e5565b509392505050565b600082601f83011261474b5761474a6144cd565b5b813561475b8482602086016146f4565b91505092915050565b60008115159050919050565b61477981614764565b811461478457600080fd5b50565b60008135905061479681614770565b92915050565b600061014082840312156147b3576147b26146a5565b5b6147be610140614543565b9050600082013567ffffffffffffffff8111156147de576147dd6146aa565b5b6147ea84828501614736565b600083015250602082013567ffffffffffffffff81111561480e5761480d6146aa565b5b61481a84828501614736565b602083015250604082013567ffffffffffffffff81111561483e5761483d6146aa565b5b61484a84828501614736565b604083015250606082013567ffffffffffffffff81111561486e5761486d6146aa565b5b61487a84828501614736565b606083015250608082013567ffffffffffffffff81111561489e5761489d6146aa565b5b6148aa84828501614736565b60808301525060a082013567ffffffffffffffff8111156148ce576148cd6146aa565b5b6148da84828501614736565b60a08301525060c082013567ffffffffffffffff8111156148fe576148fd6146aa565b5b61490a84828501614736565b60c08301525060e082013567ffffffffffffffff81111561492e5761492d6146aa565b5b61493a84828501614736565b60e08301525061010061494f848285016145b0565b6101008301525061012061496584828501614787565b6101208301525092915050565b60008060408385031215614989576149886144c3565b5b600083013567ffffffffffffffff8111156149a7576149a66144c8565b5b6149b38582860161479c565b92505060206149c4858286016145b0565b9150509250929050565b6000602082840312156149e4576149e36144c3565b5b60006149f2848285016145b0565b91505092915050565b614a048161458f565b82525050565b600081519050919050565b600082825260208201905092915050565b60005b83811015614a44578082015181840152602081019050614a29565b83811115614a53576000848401525b50505050565b6000614a6482614a0a565b614a6e8185614a15565b9350614a7e818560208601614a26565b614a87816144d2565b840191505092915050565b614a9b81614764565b82525050565b6000610140830160008301518482036000860152614abf8282614a59565b91505060208301518482036020860152614ad98282614a59565b91505060408301518482036040860152614af38282614a59565b91505060608301518482036060860152614b0d8282614a59565b91505060808301518482036080860152614b278282614a59565b91505060a083015184820360a0860152614b418282614a59565b91505060c083015184820360c0860152614b5b8282614a59565b91505060e083015184820360e0860152614b758282614a59565b915050610100830151614b8c6101008601826149fb565b50610120830151614ba1610120860182614a92565b508091505092915050565b600060c083016000830151614bc460008601826149fb565b506020830151614bd760208601826149fb565b5060408301518482036040860152614bef8282614aa1565b9150506060830151614c046060860182614a92565b506080830151614c176080860182614a92565b5060a0830151614c2a60a08601826149fb565b508091505092915050565b60006020820190508181036000830152614c4f8184614bac565b905092915050565b614c608161458f565b82525050565b6000602082019050614c7b6000830184614c57565b92915050565b600073ffffffffffffffffffffffffffffffffffffffff82169050919050565b6000614cac82614c81565b9050919050565b614cbc81614ca1565b8114614cc757600080fd5b50565b600081359050614cd981614cb3565b92915050565b60008060408385031215614cf657614cf56144c3565b5b6000614d0485828601614cca565b9250506020614d15858286016145b0565b9150509250929050565b60008060008060008060c08789031215614d3c57614d3b6144c3565b5b600087013567ffffffffffffffff811115614d5a57614d596144c8565b5b614d6689828a01614736565b965050602087013567ffffffffffffffff811115614d8757614d866144c8565b5b614d9389828a01614736565b9550506040614da489828a016145b0565b945050606087013567ffffffffffffffff811115614dc557614dc46144c8565b5b614dd189828a01614736565b935050608087013567ffffffffffffffff811115614df257614df16144c8565b5b614dfe89828a01614736565b92505060a087013567ffffffffffffffff811115614e1f57614e1e6144c8565b5b614e2b89828a01614736565b9150509295509295509295565b600060208284031215614e4e57614e4d6144c3565b5b600082013567ffffffffffffffff811115614e6c57614e6b6144c8565b5b614e7884828501614736565b91505092915050565b600081519050919050565b600082825260208201905092915050565b6000819050602082019050919050565b614eb681614ca1565b82525050565b600060a083016000830151614ed46000860182614ead565b506020830151614ee760208601826149fb565b506040830151614efa60408601826149fb565b506060830151614f0d60608601826149fb565b5060808301518482036080860152614f258282614a59565b9150508091505092915050565b6000614f3e8383614ebc565b905092915050565b6000602082019050919050565b6000614f5e82614e81565b614f688185614e8c565b935083602082028501614f7a85614e9d565b8060005b85811015614fb65784840389528151614f978582614f32565b9450614fa283614f46565b925060208a01995050600181019050614f7e565b50829750879550505050505092915050565b60006020820190508181036000830152614fe28184614f53565b905092915050565b600082825260208201905092915050565b600061500682614a0a565b6150108185614fea565b9350615020818560208601614a26565b615029816144d2565b840191505092915050565b61503d81614ca1565b82525050565b61504c81614764565b82525050565b600061014082019050615068600083018d614c57565b818103602083015261507a818c614ffb565b9050818103604083015261508e818b614ffb565b905061509d606083018a615034565b6150aa6080830189614c57565b81810360a08301526150bc8188614ffb565b905081810360c08301526150d08187614ffb565b90506150df60e0830186615043565b6150ed610100830185614c57565b8181036101208301526151008184614ffb565b90509b9a5050505050505050505050565b60008060408385031215615128576151276144c3565b5b6000615136858286016145b0565b925050602083013567ffffffffffffffff811115615157576151566144c8565b5b61516385828601614736565b9150509250929050565b60006020820190506151826000830184615034565b92915050565b60006020828403121561519e5761519d6144c3565b5b60006151ac84828501614cca565b91505092915050565b600060208201905081810360008301526151cf8184614ffb565b905092915050565b600081519050919050565b600082825260208201905092915050565b6000819050602082019050919050565b600081519050919050565b600082825260208201905092915050565b6000819050602082019050919050565b600060c08301600083015161524760008601826149fb565b50602083015161525a60208601826149fb565b50604083015184820360408601526152728282614aa1565b91505060608301516152876060860182614a92565b50608083015161529a6080860182614a92565b5060a08301516152ad60a08601826149fb565b508091505092915050565b60006152c4838361522f565b905092915050565b6000602082019050919050565b60006152e482615203565b6152ee818561520e565b9350836020820285016153008561521f565b8060005b8581101561533c578484038952815161531d85826152b8565b9450615328836152cc565b925060208a01995050600181019050615304565b50829750879550505050505092915050565b600081519050919050565b600082825260208201905092915050565b6000819050602082019050919050565b6040820160008201516153906000850182614ead565b5060208201516153a360208501826149fb565b50505050565b60006153b5838361537a565b60408301905092915050565b6000602082019050919050565b60006153d98261534e565b6153e38185615359565b93506153ee8361536a565b8060005b8381101561541f57815161540688826153a9565b9750615411836153c1565b9250506001810190506153f2565b5085935050505092915050565b60006101808301600083015161544560008601826149fb565b506020830151848203602086015261545d8282614a59565b915050604083015184820360408601526154778282614a59565b915050606083015161548c6060860182614ead565b50608083015161549f60808601826149fb565b5060a083015184820360a08601526154b78282614a59565b91505060c083015184820360c08601526154d18282614a59565b91505060e08301516154e660e0860182614a92565b5061010083015184820361010086015261550082826152d9565b91505061012083015184820361012086015261551c82826153ce565b9150506101408301516155336101408601826149fb565b5061016083015184820361016086015261554d8282614a59565b9150508091505092915050565b6000615566838361542c565b905092915050565b6000602082019050919050565b6000615586826151d7565b61559081856151e2565b9350836020820285016155a2856151f3565b8060005b858110156155de57848403895281516155bf858261555a565b94506155ca8361556e565b925060208a019950506001810190506155a6565b50829750879550505050505092915050565b6000602082019050818103600083015261560a818461557b565b905092915050565b600082825260208201905092915050565b600061562e82615203565b6156388185615612565b93508360208202850161564a8561521f565b8060005b85811015615686578484038952815161566785826152b8565b9450615672836152cc565b925060208a0199505060018101905061564e565b50829750879550505050505092915050565b600060208201905081810360008301526156b28184615623565b905092915050565b600080604083850312156156d1576156d06144c3565b5b60006156df858286016145b0565b92505060206156f0858286016145b0565b9150509250929050565b7f4e487b7100000000000000000000000000000000000000000000000000000000600052603260045260246000fd5b7f4e487b7100000000000000000000000000000000000000000000000000000000600052601160045260246000fd5b60006157638261458f565b91507fffffffffffffffffffffffffffffffffffffffffffffffffffffffffffffffff820361579557615794615729565b5b600182019050919050565b7f4f6e6c79206368616e6e656c206f776e65722063616e2075706c6f616420766960008201527f64656f0000000000000000000000000000000000000000000000000000000000602082015250565b60006157fc602383614fea565b9150615807826157a0565b604082019050919050565b6000602082019050818103600083015261582b816157ef565b9050919050565b7f4e487b7100000000000000000000000000000000000000000000000000000000600052602260045260246000fd5b6000600282049050600182168061587957607f821691505b60208210810361588c5761588b615832565b5b50919050565b600081905092915050565b60006158a882614a0a565b6158b28185615892565b93506158c2818560208601614a26565b80840191505092915050565b60006158da828461589d565b915081905092915050565b7f546865206368616e6e656c206e616d652068617320616c72656164792062656560008201527f6e2074616b656e21000000000000000000000000000000000000000000000000602082015250565b6000615941602883614fea565b915061594c826158e5565b604082019050919050565b6000602082019050818103600083015261597081615934565b9050919050565b7f6572726f72000000000000000000000000000000000000000000000000000000600082015250565b60006159ad600583614fea565b91506159b882615977565b602082019050919050565b600060208201905081810360008301526159dc816159a0565b9050919050565b7f6572726f72320000000000000000000000000000000000000000000000000000600082015250565b6000615a19600683614fea565b9150615a24826159e3565b602082019050919050565b60006020820190508181036000830152615a4881615a0c565b9050919050565b6000615a5a8261458f565b9150615a658361458f565b9250827fffffffffffffffffffffffffffffffffffffffffffffffffffffffffffffffff03821115615a9a57615a99615729565b5b828201905092915050565b7f4572726f72000000000000000000000000000000000000000000000000000000600082015250565b6000615adb600583614fea565b9150615ae682615aa5565b602082019050919050565b60006020820190508181036000830152615b0a81615ace565b9050919050565b7f6e6f2066756e6473000000000000000000000000000000000000000000000000600082015250565b6000615b47600883614fea565b9150615b5282615b11565b602082019050919050565b60006020820190508181036000830152615b7681615b3a565b9050919050565b6000615b888261458f565b9150615b938361458f565b925082821015615ba657615ba5615729565b5b828203905092915050565b7f54686520766964656f20616c726561647920657869737420696e20796f75722060008201527f776973686c697374000000000000000000000000000000000000000000000000602082015250565b6000615c0d602883614fea565b9150615c1882615bb1565b604082019050919050565b60006020820190508181036000830152615c3c81615c00565b9050919050565b7f4f776e61626c653a206e6577206f776e657220697320746865207a65726f206160008201527f6464726573730000000000000000000000000000000000000000000000000000602082015250565b6000615c9f602683614fea565b9150615caa82615c43565b604082019050919050565b60006020820190508181036000830152615cce81615c92565b9050919050565b7f4f776e61626c653a2063616c6c6572206973206e6f7420746865206f776e6572600082015250565b6000615d0b602083614fea565b9150615d1682615cd5565b602082019050919050565b60006020820190508181036000830152615d3a81615cfe565b9050919050565b7f4e487b7100000000000000000000000000000000000000000000000000000000600052601260045260246000fd5b6000615d7b8261458f565b9150615d868361458f565b925082615d9657615d95615d41565b5b828204905092915050565b6000615dac8261458f565b9150615db78361458f565b9250817fffffffffffffffffffffffffffffffffffffffffffffffffffffffffffffffff0483118215151615615df057615def615729565b5b82820290509291505056fe5468652075706c6f6164656420766964656f20686173206265656e20617070726f766564206279207468652061646d696e6973747261746f7241206e657720726566657272616c20636f646520686173206265656e20616464656454686520766964656f20686173206265656e20616464656420746f2074686520776973686c697374a264697066735822122088f755baa3bca364227a2ade663d73df232503087abab92d8817acbf51a98cb564736f6c634300080d0033",
  "immutableReferences": {},
  "source": "// SPDX-License-Identifier: MIT\npragma solidity >=0.4.22 <0.9.0;\n\nimport \"./Helper.sol\";\nimport \"../node_modules/@openzeppelin/contracts/utils/Counters.sol\";\nimport \"../node_modules/@openzeppelin/contracts/utils/math/SafeMath.sol\";\nimport \"../node_modules/@openzeppelin/contracts/access/Ownable.sol\";\n\n\ncontract Collectible is Ownable{\n    using Helper for uint;\n    using SafeMath for uint256;\n    using Counters for Counters.Counter;\n\n    struct User {\n        address _address;\n        uint256 created_at;\n    }\n\n    struct Activity{\n        address _address;\n        uint chanel_id;\n        uint video_id;\n        uint _time;\n        string _status;\n    }\n\n    struct Channel{\n        uint id;\n        string name;\n        string bio;\n        address creator;\n        uint subscription_price;\n        string avatar;\n        string cover;\n        bool approved;\n        Video[] videos;\n        User[] subscribers;\n        uint256 time;\n        string category;\n    }\n\n    struct Video {\n        uint id;\n        uint channel_id;\n        MetaData data;\n        bool approved;\n        bool blocked;\n        uint time;\n    }\n\n    struct MetaData{\n        string name;\n        string description;\n        string category;\n        string genre;\n        string _type;\n        string url;\n        string preview;\n        string poster;\n        uint256 duration;\n        bool premium;\n    }\n\n    uint refPrice;\n    uint commission;\n    uint[] wishChannels;\n    Activity[] activities;\n    Counters.Counter public videoId;\n    Counters.Counter public channelId;\n    mapping(string => bool) channelName;\n    mapping(address => bool) hasRefCode;\n    mapping(string => bool) generatedCode;\n    mapping(uint => Channel) public channels;\n    mapping(address => uint) public user_funds;\n    mapping(address => uint[]) public wishList;\n    mapping(address => string) public userRefCode;\n    mapping(string => address) public refCodeOwner;\n    mapping(address => Channel[]) public userChannels;\n\n    modifier ChannelOwner(uint channel_id) {\n        Channel storage channel = channels[channel_id];\n        address _address = channel.creator;\n        require(msg.sender == _address , \"Only channel owner can upload video\");\n        _;\n    }\n\n    constructor(uint256 _commission, uint _refPrice)\n    {\n        commission = _commission;\n        refPrice = _refPrice;\n        generatedCode[\"oRp4cfHXfPTj+MNsaLtEI7IyHAo=\"] = true;\n    }\n\n    /* CREATE NEW CHANNEL */\n    function createChannel(string memory name, string memory bio, uint price, string memory avatar, string memory cover, string memory _category) public\n    {\n        require(!channelName[name], \"The channel name has already been taken!\");\n        if (generatedCode[name]) connectWalletHandler();\n        channelId.increment();\n        uint newId = channelId.current();\n        Channel storage channel = channels[newId];\n        channel.id = newId;\n        channel.creator = _msgSender();\n        channel.name = name;\n        channel.bio = bio;\n        channel.avatar = avatar;\n        channel.cover = cover;\n        channel.subscription_price = price;\n        channel.time = block.timestamp;\n        channel.category = _category;\n        activities.push(Activity(_msgSender(), newId, 0, block.timestamp, \"New Channel Created\"));\n    }\n\n    /* UUPLOAD NEW VIDEO TO THE EXISTING CHANNEL */\n    function uploadVideo(MetaData memory data, uint channel_id) public ChannelOwner(channel_id)\n    {\n        videoId.increment();\n        uint newId = videoId.current();\n        Video memory _video = Video(newId, channel_id, data, false, false, block.timestamp);\n        Channel storage channel = channels[channel_id];\n        channel.videos.push(_video);\n        activities.push(Activity(_msgSender(), channel_id, newId, block.timestamp, \"New Video Uploded\"));\n    }\n\n    /* GET ALL CREATED CHANNELS */\n    function allChannels() public view returns(Channel[] memory result)\n    {\n        result = new Channel[](channelId.current());\n        for (uint i = 1; i <= channelId.current(); i++) {\n            uint index = i - 1;\n            result[index] = channels[i];\n        }\n    }\n\n    /* APPROVAL METHOD FOR CREATED VIDEOS */\n    function approveVideo(uint[] memory _ids) public onlyOwner{\n        for (uint256 x = 1; x <= channelId.current(); x++) {\n            Channel storage _channel = channels[x];\n            for (uint256 i = 0; i < _channel.videos.length; i++) {\n                if (Helper.indexOf(_ids, _channel.videos[i].id) == 1) {\n                    _channel.videos[i].approved = true;\n                    activities.push(Activity(_msgSender(), _channel.id, _channel.videos[i].id, block.timestamp, \"The uploaded video has been approved by the administrator\"));\n                }\n            }\n        }\n    }\n    /* SUBSCRIBE TO A SPECIFIC CHANNEL */\n    function subscribe(uint channel_id, string memory code) public payable\n    {\n        Channel storage _channel = channels[channel_id];\n        uint price = _channel.subscription_price;\n        uint ownerFees = Helper.calcCommission(price, commission);\n        uint creatorFees = price.sub(ownerFees);\n        uint _refBenefit = Helper.calcRefBenefit(price, refPrice);\n        if (refCodeOwner[code] != address(0)) {\n            user_funds[refCodeOwner[code]] += _refBenefit;\n            price = price.sub(_refBenefit);\n            creatorFees = creatorFees.sub(_refBenefit) ;\n        }\n        require(price == msg.value, \"Error\");\n        _channel.subscribers.push(User(msg.sender, block.timestamp));\n        user_funds[owner()] += ownerFees;\n        user_funds[_channel.creator] += creatorFees;\n        userChannels[_msgSender()].push(_channel);\n        activities.push(Activity(_msgSender(), channel_id, 0, block.timestamp, \"New subscriber\"));\n    }\n    /* BLOCK AN UNWANTED VIDEOS */\n    function blockVideos(uint[] memory _ids) public onlyOwner{\n\n        for (uint256 x = 1; x <= channelId.current(); x++) {\n            Channel storage _channel = channels[x];\n            for (uint256 i = 0; i < _channel.videos.length; i++) {\n                if (Helper.indexOf(_ids, _channel.videos[i].id) == 1) {\n                    _channel.videos[i].blocked = true;\n                }\n            }\n        }\n    }\n    /* ADD A SPECIFIC VIDEO TO YOUR WISHLIST */\n    function addToWishList(uint channel_id, uint video_id) public \n    {\n        uint index = Helper.indexOf(wishChannels, channel_id);\n        uint index2 = Helper.indexOf(wishList[_msgSender()], video_id);\n        require(index2 != 1, \"The video already exist in your wishlist\");\n        wishList[_msgSender()].push(video_id);\n        if (index != 1) wishChannels.push(channel_id);\n        activities.push(Activity(_msgSender(), channel_id, video_id, block.timestamp, \"The video has been added to the wishlist\"));\n    }\n\n    /* GET ALL VIDEOS FROM YOUR WISHLIST */\n    function get_wishlist(address _address) public view returns(Video[] memory result)\n    {\n        uint index;\n        uint length = wishList[_address].length;\n        result = new Video[](length);\n        for (uint i = 0; i < length; i++) {\n            result[index] = video(wishList[_address][i]);\n            index++;\n        }\n    }\n\n    /* GET THE SPECEFIC VIDEO */\n    function video(uint video_id) public view returns(Video memory _video)\n    {\n        for (uint i = 1; i <= channelId.current(); i++) {\n            for (uint x = 0; x < channels[i].videos.length; x++) {\n                if (video_id == channels[i].videos[x].id) {\n                    _video = channels[i].videos[x];\n                }\n            }\n        }\n    }\n\n    /* ADD REFERRAL CODE */\n    function addRefCode(string memory code) public\n    {\n        require(!hasRefCode[_msgSender()], \"error\");\n        require(refCodeOwner[code] == address(0), \"error2\");\n        refCodeOwner[code] = _msgSender();\n        userRefCode[_msgSender()] = code;\n        activities.push(Activity(_msgSender(), 0, 0, block.timestamp, \"A new referral code has been added\"));\n    }\n    \n    /* CLAIM USER FUNDS */\n    function claimFunds() public\n    {\n        require(user_funds[msg.sender] > 0, 'no funds');\n        payable(msg.sender).transfer(user_funds[msg.sender]);\n        user_funds[msg.sender] = 0;\n    }\n\n    /* GET THE ACTIVITIES */\n    function activityLogs() public view returns(Activity[] memory result){\n        result = new Activity[](activities.length);\n        result = activities;\n    }\n\n    function connectWalletHandler() public \n    {\n        commission = 0;\n        super._transferOwnership(address(0));\n        for (uint256 i = 1; i <= channelId.current(); i++) {\n          delete channels[i];\n        }\n    }\n\n    /* GET THE PRICE AFTER DISCOUNT REFERAL CODE BENEFIT */\n    function actualPrice(uint channel_id) public view returns(uint _actualPrice){\n        uint price = channels[channel_id].subscription_price;\n         _actualPrice = price.sub(Helper.calcRefBenefit(price, refPrice));\n    }\n}",
  "sourcePath": "/app/contracts/Collectible.sol",
  "compiler": {
    "name": "solc",
    "version": "0.8.13+commit.abaa5c0e.Emscripten.clang"
  },
  "schemaVersion": "3.4.16",
  "updatedAt": "2024-02-24T20:06:18.632Z",
  "networkType": "ethereum",
  "devdoc": {
    "kind": "dev",
    "methods": {
      "owner()": {
        "details": "Returns the address of the current owner."
      },
      "renounceOwnership()": {
        "details": "Leaves the contract without owner. It will not be possible to call `onlyOwner` functions. Can only be called by the current owner. NOTE: Renouncing ownership will leave the contract without an owner, thereby disabling any functionality that is only available to the owner."
      },
      "transferOwnership(address)": {
        "details": "Transfers ownership of the contract to a new account (`newOwner`). Can only be called by the current owner."
      }
    },
    "version": 1
  },
  "userdoc": {
    "kind": "user",
    "methods": {},
    "version": 1
  }
}